:100D63005765696768743A00303132333435363742
:030D73003839000C
:100D2A00041800000000041400000000040E000073
:100D3A00000002120000020C0000020A0000020871
:020D4A000000A7
:030DA60000002228
:0C0D8600E4FFE4FE0EBE21FC0FBF0AF6E5
:010D9200223E
:020D7600AD07C7
:0D0D7800E4FCECC39D5006120D860C80F5C6
:010D8500224B
:100D4D00C2A6D2A5D2A700000000A2879200C2A71A
:050D5D00A200E433FFD9
:010D6200226E
:070CDE007F05120D767F383F
:100CE500AE07120D4DEF640160F8C2A6C2A5C2A7FA
:100CF50000008E8000000000D2A700000000C2A7FF
:010D050022CB
:070D9F00EF4480FF020CE5A8
:050D0600900D6B93FF4E
:100D0B00AE07120D4DEF640160F8D2A6C2A5C2A7C3
:0F0D1B008E8000000000D2A700000000C2A722B7
:100C82007F0F120CE0120CDE120CDE7F05120D76C5
:100C92007F0C120CE57F05120D767F06120CE57FA4
:0E0CA20005120D767F01120CE57F05020D761E
:100C4500D2A0120DA6C2A17F007E007D007C0020EF
:100C5500A0FDE4FBD2A17801120983C2A130A00D49
:100C6500EF2401FFE43EFEE43DFDE43CFC0BBB1834
:0C0C7500E3D2A1ED6480FD120DA6C2A127
:010C81002250
:0C0D9300120C458F118E108D0F8C0E225B
:100A6400120C458F178E168D158C14C3E51795112E
:100A7400F517E5169510F516E515950FF515E5141A
:100A8400950EF514E4FFFEFDFCAB17AA16A915A8F4
:100A940014D312096D5003020B74AF17AE16AD15C3
:100AA400AC14EC1208A0E4FBFA79C87843120803EA
:100AB4001208DEE48F178E16F515F5147B0AFAF981
:100AC400F8AD15AC14120C01AE02AF038E128F13E5
:100AD4007F4C120D9FE513120D06E47B0AFAF9F818
:100AE400AF17AE16AD15AC14120C01E47B0AFAF97B
:100AF400F8120C01AE02AF038E0C8F0D7F4B120D5A
:100B04009FE50D120D06E47B64FAF9F8AF17AE16F3
:100B1400AD15AC14120C01E47B0AFAF9F8120C01BD
:100B2400AE02AF038E0A8F0B7F4A120D9FE50B12A4
:100B34000D06E47BE87A03F9F8AF17AE16AD15ACF1
:100B440014120C018E088F097F49120D9FE50912BA
:100B54000D06E47F887E13FDFCAB17AA16A915A821
:100B640014D312096D4009B2957F01120D7680F7F6
:010B7400225E
:100CB000120C82E4FF120D9FE4FDED900D6393FF93
:100CC0006006120D0B0D80F27F4D120D9F7F671293
:0E0CD0000D0B120D93C2AF120A64D2AF80F763
:10080000020954EC5D046005E85904700302094ACA
:10081000120915580460F6EC4860F2EC7004FDFE15
:10082000FF22C860DB2481C85009C39860025006CB
:100830000209519850CAF582E9294B4A7005AB82EA
:1008400002094075F0007C1A7880C3EF9BEE9AEDA8
:1008500099400DC3EF9BFFEE9AFEED99FDE842F043
:10086000DC23ACF0D0E0FFD0E0FED0E0FDAB822096
:10087000E7101BEB60BAEC2CFCEF33FFEE33FEED20
:1008800033FD02092CE803F830E705C0F075F000ED
:10089000EF2FFFEE33FEED33FD40B830E7C280AA04
:1008A00075F020800E75F010800575F0087D007ED3
:1008B000007F003392D530D50312095FEC3340102E
:1008C000EF33FFEE33FEED33FDEC33FCD5F0ED22DC
:0E08D000E5F0247EA2D513CC92E7CDCEFF2218
:1008DE00EDD2E7CD33EC3392D524814006E4FFFE12
:1008EE00FDFC22FCE4CFCECDCC24E0501174FF8071
:1008FE00EDC3CC13CCCD13CDCE13CECF13CF04700E
:07090E00F030D5DE02095FA5
:10091500E9D2E7C933E833F892D5EDD2E7CD33EC28
:0709250033FC5002B2D522A1
:10092C00EC30E7100FBF000C0EBE00080DBD00042C
:10093C000BEB6014A2D5EB13FCED92E7FD2274FFD8
:10094C00FCFDFEFF22E480F8A2D574FF13FC7D8031
:03095C00E480EF45
:03000000020B757B
:0C0B7500787FE4F6D8FD758120020BBCEF
:100C0100C2D5E830E70FB2D5E4C39BFBE49AFAE41E
:100C110099F9E498F8EC30E717B2D5120C371209BC
:100C2100D2E4C39BFBE49AFAE499F9E498F88003CF
:100C31001209D230D50DE4C39FFFE49EFEE49DFD71
:040C4100E49CFC2211
:0E095F00C3E49FFFE49EFEE49DFDE49CFC22A9
:10096D00EB9FF5F0EA9E42F0E99D42F0EC6480C801
:06097D0064809845F022A1
:10098300E8600FEFC333FFEE33FEED33FDEC33FCD2
:03099300D8F12276
:100B8100020CB0E493A3F8E493A34003F68001F2CE
:100B910008DFF48029E493A3F85407240CC8C33375
:100BA100C4540F4420C8834004F456800146F6DF44
:100BB100E4800B0102040810204080900D2AE47E9D
:100BC100019360BCA3FF543F30E509541FFEE49339
:100BD100A360010ECF54C025E060A840B8E493A300
:100BE100FAE493A3F8E493A3C8C582C8CAC583CA2B
:100BF100F0A3C8C582C8CAC583CADFE9DEE780BEE3
:010D4C0000A6
:1009960075F008758200EF2FFFEE33FECD33CDCC18
:1009A60033CCC58233C5829BED9AEC99E58298409B
:1009B6000CF582EE9BFEED9AFDEC99FC0FD5F0D678
:1009C600E4CEFBE4CDFAE4CCF9A88222B800C1B9A2
:1009D6000059BA002DEC8BF084CFCECDFCE5F0CBE0
:1009E600F97818EF2FFFEE33FEED33FDEC33FCEB19
:1009F60033FB10D703994004EB99FB0FD8E5E4F9D4
:100A0600FA227818EF2FFFEE33FEED33FDEC33FCC0
:100A1600C933C910D7059BE99A4007EC9BFCE99AB4
:100A2600F90FD8E0E4C9FAE4CCFB2275F010EF2FF9
:100A3600FFEE33FEED33FDCC33CCC833C810D707F9
:100A46009BEC9AE899400AED9BFDEC9AFCE899F834
:0E0A56000FD5F0DAE4CDFBE4CCFAE4C8F922C7
:00000001FF
