:1005DA0057656C636F6D6520746F20757365210AAA
:1005EA00004D61646520627920426565746C6520FE
:1005FA00456C656374726F6E696320546563686ED7
:10060A006F6C6F6779210A005765696768742020E3
:10061A005761726E696E67004552524F520A004521
:09062A0052524F522000206700DB
:10077A00041B00000000040E000000000417000023
:0D078A000000040800000000010C00C10088
:0C089F00C2AF53E71843E70143E7802293
:0908CC0053E77FE4F5E6D2AF2208
:0B08B70012089F75E64675E6B90022A6
:1007DD00AD07AC06C2AF8CE3EDF5E453E5F843E5A8
:0C07ED00011208B71208CCD2AFAFE22214
:10086000EE54FEFEF5E3E4F5E453E5F843E5031248
:0508700008B70208CCEE
:1007F900AB07AA06C2AF8AE3EBF5E453E5F843E594
:0C080900028DE21208B71208CCD2AF2218
:10063300E4FB7A01F9F8AF0BAE0AAD09AC08120678
:10064300788F12E4FB7A01F9F8AF0BAE0AAD09AC6F
:1006530008120678AF038F137F007E20120860AD67
:10066300127F117E201207F9AD130F1207F9AD0D9A
:050673007F600207F9A1
:1006FD007F117E201207DD8F127F121207DD8F13FF
:10070D00E512FE7C00E42513FFEC3EFEE48F0B8E1C
:0F071D000AF509F5087F607E201207DD8F0D2297
:100815001206FDE50D64056011750D05E4750BF413
:0B082500750A01F509F50812063322E0
:100280001208307BFF7A0579DA12072C7BFF7A059A
:1002900079EB12072C1208487F801208757BFF7AD1
:1002A0000679121207541208157FE87E0312079D83
:1002B0001208AB7F647E0012079D1208AB7F647E3C
:1002C0000012079D1208ABC2AF12055DD2AF120437
:1002D0001630001B7BFF7A06792212072C7FC01292
:1002E00008757BFF7A067929120754C29780D87F58
:1002F000C0120875E47BE87A03F9F8AF1AAE19ADBD
:1003000018AC17120678EF2430FF12088AE47BE855
:100310007A03F9F8AF1AAE19AD18AC17120678AC1B
:1003200000AD01AE02AF03E47B64FAF9F81206787F
:10033000EF2430FF12088AE47B64FAF9F8AF1AAEB2
:1003400019AD18AC17120678AC00AD01AE02AF03C0
:10035000E47B0AFAF9F8120678EF2430FF12088AD3
:10036000E47B0AFAF9F8AF1AAE19AD18AC17120609
:1003700078EB2430FF12088A7BFF7A067930120767
:10038000547FC8120875E47BE87A03F9F8AF0BAE26
:100390000AAD09AC08120678EF2430FF12088AE48F
:1003A0007BE87A03F9F8AF0BAE0AAD09AC08120688
:1003B00078AC00AD01AE02AF03E47B64FAF9F81249
:1003C0000678EF2430FF12088AE47B64FAF9F8AF6C
:1003D0000BAE0AAD09AC08120678AC00AD01AE0256
:1003E000AF03E47B0AFAF9F8120678EF2430FF1223
:1003F000088AE47B0AFAF9F8AF0BAE0AAD09AC083B
:10040000120678EB2430FF12088A7BFF7A067930D7
:060410001207540202C7AE
:1004160020B20D7F057E0012079D20B2031208ABA5
:1004260020B3377F147E0012079D20B32DE47F880A
:100436007E13FDFCAB0BAA0AA909A808D3120189F1
:100446005015E50B2401F50BE4350AF50AE43509E8
:10045600F509E43508F50812063320B4397F147E11
:100466000012079D20B42FE47F32FEFDFCAB0BAAE1
:100476000AA909A808C31201894018E50B9401F5D9
:100486000BE50A9400F50AE5099400F509E50894D8
:1004960000F508120633AF0BAE0AAD09AC08AB1A6D
:1004A600AA19A918A817C31201895004D2B0D29765
:1004B600AF0BAE0AAD09AC08AB1AAA19A918A81752
:0B04C600C31201894004C2B0C297229B
:10055D001206BC8F1A8E198D188C17C3E51A9511BA
:10056D00F51AE5199510F519E518950FF518E51714
:10057D00950EF517E4FFFEFDFCAB1AAA19A918A8F4
:10058D0017D3120189403CAF1AAE19AD18AC17EC58
:10059D001200A3E4FBFA79D778431200061200E1AA
:1005AD00E48F1A8E19F518F5177F887E13FDFCABB5
:1005BD001AAA19A918A817D31201894003D200222B
:0D05CD00C20022E4F51AF519F518F5172201
:0C08AB001206BC8F118E108D0F8C0E22D7
:10079D00E4FDFCC3ED9FEC9E5015E4FBFA0BBB0092
:0F07AD00010AEB647B4A70F50DBD00010C80E47E
:0107BC00221A
:0308D500000022FE
:1006BC00D2A11208D5C2A07F007E007D007C00D2A2
:1006CC00AF20A1FDC2AFE4FBD2A0780112019FC202
:1006DC00A030A10DEF2401FFE43EFEE43DFDE43C1F
:1006EC00FC0BBB18E3D2A0ED6480FD1208D5C2A0B0
:0106FC0022DB
:05079700011F00C1017B
:10083000759850C29CE4F587758921758DFD758B7F
:08084000FDD28ED2AFC2AC2242
:10072C008B218A228923AB21AA22A9231201626080
:10073C00160523E5237002052214F9120162F599BE
:08074C003099FDC29980DF2203
:0A08C200C2998F993099FDC2992266
:1007BD00E4FDFCC3ED9FEC9E5015E4FBFA0BBB0072
:0F07CD00010AEB647B4A70F50DBD00010C80E45E
:0107DC0022FA
:10087500A907C2A57F017E001207BDD2A7898012F4
:0508850007BDC2A7221F
:10088A00A907D2A57F017E001207BD8980D2A712CF
:05089A0007BDC2A7220A
:100754008B218A228923AB21AA22A923120162FFB9
:10076400D39400401012088A74012523F523E4353C
:0607740022F52280E122C3
:10084800C2A7C2A67F381208757F0C1208757F06EA
:080858001208757F010208750A
:10000300020157EC5D046005E85904700302014DD9
:10001300120118580460F6EC4860F2EC7004FDFE1F
:10002300FF22C860DB2481C85009C39860025006D0
:100033000201549850CAF582E9294B4A7005AB82F4
:1000430002014375F0007C1A7880C3EF9BEE9AEDB2
:1000530099400DC3EF9BFFEE9AFEED99FDE842F048
:10006300DC23ACF0D0E0FFD0E0FED0E0FDAB82209B
:10007300E7101BEB60BAEC2CFCEF33FFEE33FEED25
:1000830033FD02012FE803F830E705C0F075F000F7
:10009300EF2FFFEE33FEED33FD40B830E7C280AA09
:1000A30075F020800E75F010800575F0087D007ED8
:1000B300007F003392D530D50312017BEC3340101F
:1000C300EF33FFEE33FEED33FDEC33FCD5F0ED22E1
:0E00D300E5F0247EA2D513CC92E7CDCEFF221D
:1000E100EDD2E7CD33EC3392D524814006E4FFFE17
:1000F100FDFC22FCE4CFCECDCC24E0501174FF8076
:10010100EDC3CC13CCCD13CDCE13CECF13CF047012
:07011100F030D5DE02017B96
:10011800E9D2E7C933E833F892D5EDD2E7CD33EC2D
:0701280033FC5002B2D522A6
:10012F00EC30E7100FBF000C0EBE00080DBD000431
:10013F000BEB6014A2D5EB13FCED92E7FD2274FFDD
:10014F00FCFDFEFF22E480F8A2D574FF13FC7D8036
:03015F00E480EF4A
:030000000204D126
:0C04D100787FE4F6D8FD75812302051841
:10016200BB010689828A83E0225002E722BBFE029B
:09017200E32289828A83E49322CE
:10067800C2D5E830E70FB2D5E4C39BFBE49AFAE4AD
:1006880099F9E498F8EC30E717B2D51206AE1201E2
:10069800EEE4C39BFBE49AFAE499F9E498F8800342
:1006A8001201EE30D50DE4C39FFFE49EFEE49DFDEC
:0406B800E49CFC22A0
:0E017B00C3E49FFFE49EFEE49DFDE49CFC2295
:10018900EB9FF5F0EA9E42F0E99D42F0EC6480C8ED
:0601990064809845F0228D
:10019F00E8600FEFC333FFEE33FEED33FDEC33FCBE
:0301AF00D8F12262
:1004DD00020280E493A3F8E493A34003F68001F2B3
:1004ED0008DFF48029E493A3F85407240CC8C33320
:1004FD00C4540F4420C8834004F456800146F6DFEF
:10050D00E4800B010204081020408090077AE47EFD
:10051D00019360BCA3FF543F30E509541FFEE493E3
:10052D00A360010ECF54C025E060A840B8E493A3AA
:10053D00FAE493A3F8E493A3C8C582C8CAC583CAD5
:10054D00F0A3C8C582C8CAC583CADFE9DEE780BE8D
:01079C00005C
:1001B20075F008758200EF2FFFEE33FECD33CDCC04
:1001C20033CCC58233C5829BED9AEC99E582984087
:1001D2000CF582EE9BFEED9AFDEC99FC0FD5F0D664
:1001E200E4CEFBE4CDFAE4CCF9A88222B800C1B98E
:1001F2000059BA002DEC8BF084CFCECDFCE5F0CBCC
:10020200F97818EF2FFFEE33FEED33FDEC33FCEB04
:1002120033FB10D703994004EB99FB0FD8E5E4F9BF
:10022200FA227818EF2FFFEE33FEED33FDEC33FCAC
:10023200C933C910D7059BE99A4007EC9BFCE99AA0
:10024200F90FD8E0E4C9FAE4CCFB2275F010EF2FE5
:10025200FFEE33FEED33FDCC33CCC833C810D707E5
:100262009BEC9AE899400AED9BFDEC9AFCE899F820
:0E0272000FD5F0DAE4CDFBE4CCFAE4C8F922B3
:00000001FF
