:03000000020016E5
:0C001600787FE4F6D8FD75811002005DD3
:03000E00010800E6
:07019700C2AFD28AD2AA22F6
:10017C0030B217E508701320AF10D2AFC2B2850CA5
:0B018C0010850B0F850A0E85090D225F
:1000A20020B02B7F007EE17DF57C05AB0CAA0BA96D
:1000B2000AA809C31201585015E50C240AF50CE4EC
:1000C200350BF50BE4350AF50AE43509F50920B1DB
:1000D2002CE47F64FEFDFCAB0CAA0BA90AA809D391
:1000E2001201584018E50C940AF50CE50B9400F542
:0E00F2000BE50A9400F50AE5099400F50922D1
:0B0003001201971200A212017C80F88D
:03001300020100E7
:10010000C0E0C0D075D000C000C004C005C006C0AB
:10011000070508E508C394195021E50E5480FDED4C
:1001200024FF92B2AF10AE0FAD0EAC0D78011201EC
:10013000698F108E0F8D0E8C0D800EE508C39419FB
:100140004007750800C2AFD2B2D007D006D005D0A4
:0801500004D000D0D0D0E03251
:10002200020003E493A3F8E493A34003F68001F2F1
:1000320008DFF48029E493A3F85407240CC8C333DF
:10004200C4540F4420C8834004F456800146F6DFAE
:10005200E4800B010204081020408090000EE47E30
:10006200019360BCA3FF543F30E509541FFEE493A3
:10007200A360010ECF54C025E060A840B8E493A36A
:10008200FAE493A3F8E493A3C8C582C8CAC583CA95
:10009200F0A3C8C582C8CAC583CADFE9DEE780BE4D
:0100110000EE
:10015800EB9FF5F0EA9E42F0E99D42F0E89C45F0FD
:010168002274
:10016900E8600FEFC333FFEE33FEED33FDEC33FCF4
:03017900D8F12298
:00000001FF
